{
  "_format": "hh-sol-artifact-1",
  "contractName": "Create",
  "sourceName": "contracts/VotingContract.sol",
  "abi": [
    {
      "inputs": [],
      "stateMutability": "nonpayable",
      "type": "constructor"
    },
    {
      "anonymous": false,
      "inputs": [
        {
          "indexed": true,
          "internalType": "uint256",
          "name": "candidateId",
          "type": "uint256"
        },
        {
          "indexed": false,
          "internalType": "string",
          "name": "age",
          "type": "string"
        },
        {
          "indexed": false,
          "internalType": "string",
          "name": "name",
          "type": "string"
        },
        {
          "indexed": false,
          "internalType": "string",
          "name": "image",
          "type": "string"
        },
        {
          "indexed": false,
          "internalType": "uint256",
          "name": "voteCount",
          "type": "uint256"
        },
        {
          "indexed": false,
          "internalType": "address",
          "name": "_address",
          "type": "address"
        },
        {
          "indexed": false,
          "internalType": "string",
          "name": "ipfs",
          "type": "string"
        }
      ],
      "name": "CandidateCreate",
      "type": "event"
    },
    {
      "anonymous": false,
      "inputs": [
        {
          "indexed": true,
          "internalType": "uint256",
          "name": "voter_voterId",
          "type": "uint256"
        },
        {
          "indexed": false,
          "internalType": "string",
          "name": "voter_name",
          "type": "string"
        },
        {
          "indexed": false,
          "internalType": "string",
          "name": "voter_image",
          "type": "string"
        },
        {
          "indexed": false,
          "internalType": "address",
          "name": "voter_address",
          "type": "address"
        },
        {
          "indexed": false,
          "internalType": "uint256",
          "name": "voter_allowed",
          "type": "uint256"
        },
        {
          "indexed": false,
          "internalType": "bool",
          "name": "voter_voted",
          "type": "bool"
        },
        {
          "indexed": false,
          "internalType": "uint256",
          "name": "voter_vote",
          "type": "uint256"
        },
        {
          "indexed": false,
          "internalType": "string",
          "name": "voter_ipfs",
          "type": "string"
        }
      ],
      "name": "VoterCreated",
      "type": "event"
    },
    {
      "inputs": [],
      "name": "_candidateId",
      "outputs": [
        {
          "internalType": "uint256",
          "name": "_value",
          "type": "uint256"
        }
      ],
      "stateMutability": "view",
      "type": "function"
    },
    {
      "inputs": [],
      "name": "_voterId",
      "outputs": [
        {
          "internalType": "uint256",
          "name": "_value",
          "type": "uint256"
        }
      ],
      "stateMutability": "view",
      "type": "function"
    },
    {
      "inputs": [
        {
          "internalType": "uint256",
          "name": "",
          "type": "uint256"
        }
      ],
      "name": "candidateAddress",
      "outputs": [
        {
          "internalType": "address",
          "name": "",
          "type": "address"
        }
      ],
      "stateMutability": "view",
      "type": "function"
    },
    {
      "inputs": [
        {
          "internalType": "address",
          "name": "",
          "type": "address"
        }
      ],
      "name": "candidates",
      "outputs": [
        {
          "internalType": "uint256",
          "name": "candidateId",
          "type": "uint256"
        },
        {
          "internalType": "string",
          "name": "age",
          "type": "string"
        },
        {
          "internalType": "string",
          "name": "name",
          "type": "string"
        },
        {
          "internalType": "string",
          "name": "image",
          "type": "string"
        },
        {
          "internalType": "uint256",
          "name": "voteCount",
          "type": "uint256"
        },
        {
          "internalType": "address",
          "name": "_address",
          "type": "address"
        },
        {
          "internalType": "string",
          "name": "ipfs",
          "type": "string"
        }
      ],
      "stateMutability": "view",
      "type": "function"
    },
    {
      "inputs": [],
      "name": "getCandidate",
      "outputs": [
        {
          "internalType": "address[]",
          "name": "",
          "type": "address[]"
        }
      ],
      "stateMutability": "view",
      "type": "function"
    },
    {
      "inputs": [
        {
          "internalType": "address",
          "name": "_address",
          "type": "address"
        }
      ],
      "name": "getCandidateData",
      "outputs": [
        {
          "internalType": "string",
          "name": "",
          "type": "string"
        },
        {
          "internalType": "string",
          "name": "",
          "type": "string"
        },
        {
          "internalType": "uint256",
          "name": "",
          "type": "uint256"
        },
        {
          "internalType": "string",
          "name": "",
          "type": "string"
        },
        {
          "internalType": "uint256",
          "name": "",
          "type": "uint256"
        },
        {
          "internalType": "string",
          "name": "",
          "type": "string"
        },
        {
          "internalType": "address",
          "name": "",
          "type": "address"
        }
      ],
      "stateMutability": "view",
      "type": "function"
    },
    {
      "inputs": [],
      "name": "getCandidateLength",
      "outputs": [
        {
          "internalType": "uint256",
          "name": "",
          "type": "uint256"
        }
      ],
      "stateMutability": "view",
      "type": "function"
    },
    {
      "inputs": [],
      "name": "getVotedVoterList",
      "outputs": [
        {
          "internalType": "address[]",
          "name": "",
          "type": "address[]"
        }
      ],
      "stateMutability": "view",
      "type": "function"
    },
    {
      "inputs": [
        {
          "internalType": "address",
          "name": "_address",
          "type": "address"
        }
      ],
      "name": "getVoterData",
      "outputs": [
        {
          "internalType": "uint256",
          "name": "",
          "type": "uint256"
        },
        {
          "internalType": "string",
          "name": "",
          "type": "string"
        },
        {
          "internalType": "string",
          "name": "",
          "type": "string"
        },
        {
          "internalType": "address",
          "name": "",
          "type": "address"
        },
        {
          "internalType": "string",
          "name": "",
          "type": "string"
        },
        {
          "internalType": "uint256",
          "name": "",
          "type": "uint256"
        },
        {
          "internalType": "bool",
          "name": "",
          "type": "bool"
        }
      ],
      "stateMutability": "view",
      "type": "function"
    },
    {
      "inputs": [],
      "name": "getVoterLength",
      "outputs": [
        {
          "internalType": "uint256",
          "name": "",
          "type": "uint256"
        }
      ],
      "stateMutability": "view",
      "type": "function"
    },
    {
      "inputs": [],
      "name": "getVoterList",
      "outputs": [
        {
          "internalType": "address[]",
          "name": "",
          "type": "address[]"
        }
      ],
      "stateMutability": "view",
      "type": "function"
    },
    {
      "inputs": [
        {
          "internalType": "address",
          "name": "_address",
          "type": "address"
        },
        {
          "internalType": "string",
          "name": "_age",
          "type": "string"
        },
        {
          "internalType": "string",
          "name": "_name",
          "type": "string"
        },
        {
          "internalType": "string",
          "name": "_image",
          "type": "string"
        },
        {
          "internalType": "string",
          "name": "_ipfs",
          "type": "string"
        }
      ],
      "name": "setCandidate",
      "outputs": [],
      "stateMutability": "nonpayable",
      "type": "function"
    },
    {
      "inputs": [
        {
          "internalType": "address",
          "name": "_candidateAddress",
          "type": "address"
        },
        {
          "internalType": "uint256",
          "name": "_candidateVoteId",
          "type": "uint256"
        }
      ],
      "name": "vote",
      "outputs": [],
      "stateMutability": "nonpayable",
      "type": "function"
    },
    {
      "inputs": [
        {
          "internalType": "uint256",
          "name": "",
          "type": "uint256"
        }
      ],
      "name": "votedVoters",
      "outputs": [
        {
          "internalType": "address",
          "name": "",
          "type": "address"
        }
      ],
      "stateMutability": "view",
      "type": "function"
    },
    {
      "inputs": [
        {
          "internalType": "address",
          "name": "_address",
          "type": "address"
        },
        {
          "internalType": "string",
          "name": "_name",
          "type": "string"
        },
        {
          "internalType": "string",
          "name": "_image",
          "type": "string"
        },
        {
          "internalType": "string",
          "name": "_ipfs",
          "type": "string"
        }
      ],
      "name": "voterRight",
      "outputs": [],
      "stateMutability": "nonpayable",
      "type": "function"
    },
    {
      "inputs": [
        {
          "internalType": "address",
          "name": "",
          "type": "address"
        }
      ],
      "name": "voters",
      "outputs": [
        {
          "internalType": "uint256",
          "name": "voter_voterId",
          "type": "uint256"
        },
        {
          "internalType": "string",
          "name": "voter_name",
          "type": "string"
        },
        {
          "internalType": "string",
          "name": "voter_image",
          "type": "string"
        },
        {
          "internalType": "address",
          "name": "voter_address",
          "type": "address"
        },
        {
          "internalType": "uint256",
          "name": "voter_allowed",
          "type": "uint256"
        },
        {
          "internalType": "bool",
          "name": "voter_voted",
          "type": "bool"
        },
        {
          "internalType": "uint256",
          "name": "voter_vote",
          "type": "uint256"
        },
        {
          "internalType": "string",
          "name": "voter_ipfs",
          "type": "string"
        }
      ],
      "stateMutability": "view",
      "type": "function"
    },
    {
      "inputs": [
        {
          "internalType": "uint256",
          "name": "",
          "type": "uint256"
        }
      ],
      "name": "votersAddress",
      "outputs": [
        {
          "internalType": "address",
          "name": "",
          "type": "address"
        }
      ],
      "stateMutability": "view",
      "type": "function"
    },
    {
      "inputs": [],
      "name": "votingOrganizer",
      "outputs": [
        {
          "internalType": "address",
          "name": "",
          "type": "address"
        }
      ],
      "stateMutability": "view",
      "type": "function"
    }
  ],
  "bytecode": "0x6080604052348015600e575f5ffd5b503360025f6101000a81548173ffffffffffffffffffffffffffffffffffffffff021916908373ffffffffffffffffffffffffffffffffffffffff1602179055506127238061005c5f395ff3fe608060405234801561000f575f5ffd5b5060043610610114575f3560e01c80638ab66a90116100a0578063a73889671161006f578063a738896714610331578063b28d92ae1461034f578063b9be31521461036d578063c91ec7121461038b578063f7522a83146103a757610114565b80638ab66a90146102705780638e945685146102a65780638fb4cd80146102c4578063a3ec138d146102fa57610114565b806343242daa116100e757806343242daa146101b85780635cc48aa7146101e85780635f74bbde1461020657806370218b85146102225780637831ffb31461024057610114565b80630361419e1461011857806305ad45a4146101345780632a466ac7146101525780633a88251a14610188575b5f5ffd5b610132600480360381019061012d9190611ad2565b6103c5565b005b61013c61062c565b6040516101499190611ba2565b60405180910390f35b61016c60048036038101906101679190611bbb565b610638565b60405161017f9796959493929190611c55565b60405180910390f35b6101a2600480360381019061019d9190611d08565b610a64565b6040516101af9190611d33565b60405180910390f35b6101d260048036038101906101cd9190611d08565b610a9f565b6040516101df9190611d33565b60405180910390f35b6101f0610ada565b6040516101fd9190611d33565b60405180910390f35b610220600480360381019061021b9190611d4c565b610aff565b005b61022a610cba565b6040516102379190611e41565b60405180910390f35b61025a60048036038101906102559190611d08565b610d45565b6040516102679190611d33565b60405180910390f35b61028a60048036038101906102859190611bbb565b610d80565b60405161029d9796959493929190611e61565b60405180910390f35b6102ae610ff5565b6040516102bb9190611e41565b60405180910390f35b6102de60048036038101906102d99190611bbb565b611080565b6040516102f19796959493929190611f04565b60405180910390f35b610314600480360381019061030f9190611bbb565b61142e565b604051610328989796959493929190611f86565b60405180910390f35b61033961162f565b6040516103469190611ba2565b60405180910390f35b61035761163a565b6040516103649190611e41565b60405180910390f35b6103756116c5565b6040516103829190611ba2565b60405180910390f35b6103a560048036038101906103a09190612017565b6116cf565b005b6103af6118ff565b6040516103bc9190611ba2565b60405180910390f35b3373ffffffffffffffffffffffffffffffffffffffff1660025f9054906101000a900473ffffffffffffffffffffffffffffffffffffffff1673ffffffffffffffffffffffffffffffffffffffff1614610454576040517f08c379a000000000000000000000000000000000000000000000000000000000815260040161044b90612148565b60405180910390fd5b61045d5f61190b565b5f6104675f61191f565b90505f60075f8773ffffffffffffffffffffffffffffffffffffffff1673ffffffffffffffffffffffffffffffffffffffff1681526020019081526020015f2090505f8160040154146104b8575f5ffd5b60018160040181905550848160010190816104d39190612363565b50838160020190816104e59190612363565b5085816003015f6101000a81548173ffffffffffffffffffffffffffffffffffffffff021916908373ffffffffffffffffffffffffffffffffffffffff16021790555081815f01819055506103e881600601819055505f816005015f6101000a81548160ff021916908315150217905550828160070190816105679190612363565b50600686908060018154018082558091505060019003905f5260205f20015f9091909190916101000a81548173ffffffffffffffffffffffffffffffffffffffff021916908373ffffffffffffffffffffffffffffffffffffffff160217905550817ff5f39971dd62d9929e3a9feaa6bb77fe7c7da0001babff8a65a7e51ad0201c198686898560040154866005015f9054906101000a900460ff1687600601548a60405161061c9796959493929190612432565b60405180910390a2505050505050565b5f600680549050905090565b6060805f60605f60605f60045f8973ffffffffffffffffffffffffffffffffffffffff1673ffffffffffffffffffffffffffffffffffffffff1681526020019081526020015f2060010160045f8a73ffffffffffffffffffffffffffffffffffffffff1673ffffffffffffffffffffffffffffffffffffffff1681526020019081526020015f2060020160045f8b73ffffffffffffffffffffffffffffffffffffffff1673ffffffffffffffffffffffffffffffffffffffff1681526020019081526020015f205f015460045f8c73ffffffffffffffffffffffffffffffffffffffff1673ffffffffffffffffffffffffffffffffffffffff1681526020019081526020015f2060030160045f8d73ffffffffffffffffffffffffffffffffffffffff1673ffffffffffffffffffffffffffffffffffffffff1681526020019081526020015f206004015460045f8e73ffffffffffffffffffffffffffffffffffffffff1673ffffffffffffffffffffffffffffffffffffffff1681526020019081526020015f2060060160045f8f73ffffffffffffffffffffffffffffffffffffffff1673ffffffffffffffffffffffffffffffffffffffff1681526020019081526020015f206005015f9054906101000a900473ffffffffffffffffffffffffffffffffffffffff1686805461082f90612193565b80601f016020809104026020016040519081016040528092919081815260200182805461085b90612193565b80156108a65780601f1061087d576101008083540402835291602001916108a6565b820191905f5260205f20905b81548152906001019060200180831161088957829003601f168201915b505050505096508580546108b990612193565b80601f01602080910402602001604051908101604052809291908181526020018280546108e590612193565b80156109305780601f1061090757610100808354040283529160200191610930565b820191905f5260205f20905b81548152906001019060200180831161091357829003601f168201915b5050505050955083805461094390612193565b80601f016020809104026020016040519081016040528092919081815260200182805461096f90612193565b80156109ba5780601f10610991576101008083540402835291602001916109ba565b820191905f5260205f20905b81548152906001019060200180831161099d57829003601f168201915b505050505093508180546109cd90612193565b80601f01602080910402602001604051908101604052809291908181526020018280546109f990612193565b8015610a445780601f10610a1b57610100808354040283529160200191610a44565b820191905f5260205f20905b815481529060010190602001808311610a2757829003601f168201915b505050505091509650965096509650965096509650919395979092949650565b60038181548110610a73575f80fd5b905f5260205f20015f915054906101000a900473ffffffffffffffffffffffffffffffffffffffff1681565b60068181548110610aae575f80fd5b905f5260205f20015f915054906101000a900473ffffffffffffffffffffffffffffffffffffffff1681565b60025f9054906101000a900473ffffffffffffffffffffffffffffffffffffffff1681565b5f60075f3373ffffffffffffffffffffffffffffffffffffffff1673ffffffffffffffffffffffffffffffffffffffff1681526020019081526020015f209050806005015f9054906101000a900460ff1615610b90576040517f08c379a0000000000000000000000000000000000000000000000000000000008152600401610b87906124fe565b60405180910390fd5b5f816004015403610bd6576040517f08c379a0000000000000000000000000000000000000000000000000000000008152600401610bcd90612566565b60405180910390fd5b6001816005015f6101000a81548160ff021916908315150217905550818160060181905550600533908060018154018082558091505060019003905f5260205f20015f9091909190916101000a81548173ffffffffffffffffffffffffffffffffffffffff021916908373ffffffffffffffffffffffffffffffffffffffff160217905550806004015460045f8573ffffffffffffffffffffffffffffffffffffffff1673ffffffffffffffffffffffffffffffffffffffff1681526020019081526020015f206004015f828254610cae91906125b1565b92505081905550505050565b60606003805480602002602001604051908101604052809291908181526020018280548015610d3b57602002820191905f5260205f20905b815f9054906101000a900473ffffffffffffffffffffffffffffffffffffffff1673ffffffffffffffffffffffffffffffffffffffff1681526020019060010190808311610cf2575b5050505050905090565b60058181548110610d54575f80fd5b905f5260205f20015f915054906101000a900473ffffffffffffffffffffffffffffffffffffffff1681565b6004602052805f5260405f205f91509050805f015490806001018054610da590612193565b80601f0160208091040260200160405190810160405280929190818152602001828054610dd190612193565b8015610e1c5780601f10610df357610100808354040283529160200191610e1c565b820191905f5260205f20905b815481529060010190602001808311610dff57829003601f168201915b505050505090806002018054610e3190612193565b80601f0160208091040260200160405190810160405280929190818152602001828054610e5d90612193565b8015610ea85780601f10610e7f57610100808354040283529160200191610ea8565b820191905f5260205f20905b815481529060010190602001808311610e8b57829003601f168201915b505050505090806003018054610ebd90612193565b80601f0160208091040260200160405190810160405280929190818152602001828054610ee990612193565b8015610f345780601f10610f0b57610100808354040283529160200191610f34565b820191905f5260205f20905b815481529060010190602001808311610f1757829003601f168201915b505050505090806004015490806005015f9054906101000a900473ffffffffffffffffffffffffffffffffffffffff1690806006018054610f7490612193565b80601f0160208091040260200160405190810160405280929190818152602001828054610fa090612193565b8015610feb5780601f10610fc257610100808354040283529160200191610feb565b820191905f5260205f20905b815481529060010190602001808311610fce57829003601f168201915b5050505050905087565b6060600580548060200260200160405190810160405280929190818152602001828054801561107657602002820191905f5260205f20905b815f9054906101000a900473ffffffffffffffffffffffffffffffffffffffff1673ffffffffffffffffffffffffffffffffffffffff168152602001906001019080831161102d575b5050505050905090565b5f6060805f60605f5f60075f8973ffffffffffffffffffffffffffffffffffffffff1673ffffffffffffffffffffffffffffffffffffffff1681526020019081526020015f205f015460075f8a73ffffffffffffffffffffffffffffffffffffffff1673ffffffffffffffffffffffffffffffffffffffff1681526020019081526020015f2060010160075f8b73ffffffffffffffffffffffffffffffffffffffff1673ffffffffffffffffffffffffffffffffffffffff1681526020019081526020015f2060020160075f8c73ffffffffffffffffffffffffffffffffffffffff1673ffffffffffffffffffffffffffffffffffffffff1681526020019081526020015f206003015f9054906101000a900473ffffffffffffffffffffffffffffffffffffffff1660075f8d73ffffffffffffffffffffffffffffffffffffffff1673ffffffffffffffffffffffffffffffffffffffff1681526020019081526020015f2060070160075f8e73ffffffffffffffffffffffffffffffffffffffff1673ffffffffffffffffffffffffffffffffffffffff1681526020019081526020015f206004015460075f8f73ffffffffffffffffffffffffffffffffffffffff1673ffffffffffffffffffffffffffffffffffffffff1681526020019081526020015f206005015f9054906101000a900460ff1685805461128390612193565b80601f01602080910402602001604051908101604052809291908181526020018280546112af90612193565b80156112fa5780601f106112d1576101008083540402835291602001916112fa565b820191905f5260205f20905b8154815290600101906020018083116112dd57829003601f168201915b5050505050955084805461130d90612193565b80601f016020809104026020016040519081016040528092919081815260200182805461133990612193565b80156113845780601f1061135b57610100808354040283529160200191611384565b820191905f5260205f20905b81548152906001019060200180831161136757829003601f168201915b5050505050945082805461139790612193565b80601f01602080910402602001604051908101604052809291908181526020018280546113c390612193565b801561140e5780601f106113e55761010080835404028352916020019161140e565b820191905f5260205f20905b8154815290600101906020018083116113f157829003601f168201915b505050505092509650965096509650965096509650919395979092949650565b6007602052805f5260405f205f91509050805f01549080600101805461145390612193565b80601f016020809104026020016040519081016040528092919081815260200182805461147f90612193565b80156114ca5780601f106114a1576101008083540402835291602001916114ca565b820191905f5260205f20905b8154815290600101906020018083116114ad57829003601f168201915b5050505050908060020180546114df90612193565b80601f016020809104026020016040519081016040528092919081815260200182805461150b90612193565b80156115565780601f1061152d57610100808354040283529160200191611556565b820191905f5260205f20905b81548152906001019060200180831161153957829003601f168201915b505050505090806003015f9054906101000a900473ffffffffffffffffffffffffffffffffffffffff1690806004015490806005015f9054906101000a900460ff16908060060154908060070180546115ae90612193565b80601f01602080910402602001604051908101604052809291908181526020018280546115da90612193565b80156116255780601f106115fc57610100808354040283529160200191611625565b820191905f5260205f20905b81548152906001019060200180831161160857829003601f168201915b5050505050905088565b6001805f0154905081565b606060068054806020026020016040519081016040528092919081815260200182805480156116bb57602002820191905f5260205f20905b815f9054906101000a900473ffffffffffffffffffffffffffffffffffffffff1673ffffffffffffffffffffffffffffffffffffffff1681526020019060010190808311611672575b5050505050905090565b5f805f0154905081565b3373ffffffffffffffffffffffffffffffffffffffff1660025f9054906101000a900473ffffffffffffffffffffffffffffffffffffffff1673ffffffffffffffffffffffffffffffffffffffff161461175e576040517f08c379a000000000000000000000000000000000000000000000000000000000815260040161175590612654565b60405180910390fd5b611768600161190b565b5f611773600161191f565b90505f60045f8873ffffffffffffffffffffffffffffffffffffffff1673ffffffffffffffffffffffffffffffffffffffff1681526020019081526020015f209050858160010190816117c69190612363565b50848160020190816117d89190612363565b5081815f0181905550838160030190816117f29190612363565b505f816004018190555086816005015f6101000a81548173ffffffffffffffffffffffffffffffffffffffff021916908373ffffffffffffffffffffffffffffffffffffffff1602179055508281600601908161184f9190612363565b50600387908060018154018082558091505060019003905f5260205f20015f9091909190916101000a81548173ffffffffffffffffffffffffffffffffffffffff021916908373ffffffffffffffffffffffffffffffffffffffff160217905550817fd297f12b256bb8485a6013fb5e302017018123e99a0ebb20756c09e1707b4b9087878785600401548c896040516118ee96959493929190612672565b60405180910390a250505050505050565b5f600380549050905090565b6001815f015f828254019250508190555050565b5f815f01549050919050565b5f604051905090565b5f5ffd5b5f5ffd5b5f73ffffffffffffffffffffffffffffffffffffffff82169050919050565b5f6119658261193c565b9050919050565b6119758161195b565b811461197f575f5ffd5b50565b5f813590506119908161196c565b92915050565b5f5ffd5b5f5ffd5b5f601f19601f8301169050919050565b7f4e487b71000000000000000000000000000000000000000000000000000000005f52604160045260245ffd5b6119e48261199e565b810181811067ffffffffffffffff82111715611a0357611a026119ae565b5b80604052505050565b5f611a1561192b565b9050611a2182826119db565b919050565b5f67ffffffffffffffff821115611a4057611a3f6119ae565b5b611a498261199e565b9050602081019050919050565b828183375f83830152505050565b5f611a76611a7184611a26565b611a0c565b905082815260208101848484011115611a9257611a9161199a565b5b611a9d848285611a56565b509392505050565b5f82601f830112611ab957611ab8611996565b5b8135611ac9848260208601611a64565b91505092915050565b5f5f5f5f60808587031215611aea57611ae9611934565b5b5f611af787828801611982565b945050602085013567ffffffffffffffff811115611b1857611b17611938565b5b611b2487828801611aa5565b935050604085013567ffffffffffffffff811115611b4557611b44611938565b5b611b5187828801611aa5565b925050606085013567ffffffffffffffff811115611b7257611b71611938565b5b611b7e87828801611aa5565b91505092959194509250565b5f819050919050565b611b9c81611b8a565b82525050565b5f602082019050611bb55f830184611b93565b92915050565b5f60208284031215611bd057611bcf611934565b5b5f611bdd84828501611982565b91505092915050565b5f81519050919050565b5f82825260208201905092915050565b8281835e5f83830152505050565b5f611c1882611be6565b611c228185611bf0565b9350611c32818560208601611c00565b611c3b8161199e565b840191505092915050565b611c4f8161195b565b82525050565b5f60e0820190508181035f830152611c6d818a611c0e565b90508181036020830152611c818189611c0e565b9050611c906040830188611b93565b8181036060830152611ca28187611c0e565b9050611cb16080830186611b93565b81810360a0830152611cc38185611c0e565b9050611cd260c0830184611c46565b98975050505050505050565b611ce781611b8a565b8114611cf1575f5ffd5b50565b5f81359050611d0281611cde565b92915050565b5f60208284031215611d1d57611d1c611934565b5b5f611d2a84828501611cf4565b91505092915050565b5f602082019050611d465f830184611c46565b92915050565b5f5f60408385031215611d6257611d61611934565b5b5f611d6f85828601611982565b9250506020611d8085828601611cf4565b9150509250929050565b5f81519050919050565b5f82825260208201905092915050565b5f819050602082019050919050565b611dbc8161195b565b82525050565b5f611dcd8383611db3565b60208301905092915050565b5f602082019050919050565b5f611def82611d8a565b611df98185611d94565b9350611e0483611da4565b805f5b83811015611e34578151611e1b8882611dc2565b9750611e2683611dd9565b925050600181019050611e07565b5085935050505092915050565b5f6020820190508181035f830152611e598184611de5565b905092915050565b5f60e082019050611e745f83018a611b93565b8181036020830152611e868189611c0e565b90508181036040830152611e9a8188611c0e565b90508181036060830152611eae8187611c0e565b9050611ebd6080830186611b93565b611eca60a0830185611c46565b81810360c0830152611edc8184611c0e565b905098975050505050505050565b5f8115159050919050565b611efe81611eea565b82525050565b5f60e082019050611f175f83018a611b93565b8181036020830152611f298189611c0e565b90508181036040830152611f3d8188611c0e565b9050611f4c6060830187611c46565b8181036080830152611f5e8186611c0e565b9050611f6d60a0830185611b93565b611f7a60c0830184611ef5565b98975050505050505050565b5f61010082019050611f9a5f83018b611b93565b8181036020830152611fac818a611c0e565b90508181036040830152611fc08189611c0e565b9050611fcf6060830188611c46565b611fdc6080830187611b93565b611fe960a0830186611ef5565b611ff660c0830185611b93565b81810360e08301526120088184611c0e565b90509998505050505050505050565b5f5f5f5f5f60a086880312156120305761202f611934565b5b5f61203d88828901611982565b955050602086013567ffffffffffffffff81111561205e5761205d611938565b5b61206a88828901611aa5565b945050604086013567ffffffffffffffff81111561208b5761208a611938565b5b61209788828901611aa5565b935050606086013567ffffffffffffffff8111156120b8576120b7611938565b5b6120c488828901611aa5565b925050608086013567ffffffffffffffff8111156120e5576120e4611938565b5b6120f188828901611aa5565b9150509295509295909350565b7f6f6e6c79206f7267616e697a65722063616e2063726561746520766f746572005f82015250565b5f612132601f83611bf0565b915061213d826120fe565b602082019050919050565b5f6020820190508181035f83015261215f81612126565b9050919050565b7f4e487b71000000000000000000000000000000000000000000000000000000005f52602260045260245ffd5b5f60028204905060018216806121aa57607f821691505b6020821081036121bd576121bc612166565b5b50919050565b5f819050815f5260205f209050919050565b5f6020601f8301049050919050565b5f82821b905092915050565b5f6008830261221f7fffffffffffffffffffffffffffffffffffffffffffffffffffffffffffffffff826121e4565b61222986836121e4565b95508019841693508086168417925050509392505050565b5f819050919050565b5f61226461225f61225a84611b8a565b612241565b611b8a565b9050919050565b5f819050919050565b61227d8361224a565b6122916122898261226b565b8484546121f0565b825550505050565b5f5f905090565b6122a8612299565b6122b3818484612274565b505050565b5b818110156122d6576122cb5f826122a0565b6001810190506122b9565b5050565b601f82111561231b576122ec816121c3565b6122f5846121d5565b81016020851015612304578190505b612318612310856121d5565b8301826122b8565b50505b505050565b5f82821c905092915050565b5f61233b5f1984600802612320565b1980831691505092915050565b5f612353838361232c565b9150826002028217905092915050565b61236c82611be6565b67ffffffffffffffff811115612385576123846119ae565b5b61238f8254612193565b61239a8282856122da565b5f60209050601f8311600181146123cb575f84156123b9578287015190505b6123c38582612348565b86555061242a565b601f1984166123d9866121c3565b5f5b82811015612400578489015182556001820191506020850194506020810190506123db565b8683101561241d5784890151612419601f89168261232c565b8355505b6001600288020188555050505b505050505050565b5f60e0820190508181035f83015261244a818a611c0e565b9050818103602083015261245e8189611c0e565b905061246d6040830188611c46565b61247a6060830187611b93565b6124876080830186611ef5565b61249460a0830185611b93565b81810360c08301526124a68184611c0e565b905098975050505050505050565b7f796f75206861766520616c726561647920766f746564000000000000000000005f82015250565b5f6124e8601683611bf0565b91506124f3826124b4565b602082019050919050565b5f6020820190508181035f830152612515816124dc565b9050919050565b7f796f752068617665206e6f20726967687420746f20766f7465000000000000005f82015250565b5f612550601983611bf0565b915061255b8261251c565b602082019050919050565b5f6020820190508181035f83015261257d81612544565b9050919050565b7f4e487b71000000000000000000000000000000000000000000000000000000005f52601160045260245ffd5b5f6125bb82611b8a565b91506125c683611b8a565b92508282019050808211156125de576125dd612584565b5b92915050565b7f4f6e6c79206f7267616e697a65722063616e20617574686f72697a652063616e5f8201527f6469646174650000000000000000000000000000000000000000000000000000602082015250565b5f61263e602683611bf0565b9150612649826125e4565b604082019050919050565b5f6020820190508181035f83015261266b81612632565b9050919050565b5f60c0820190508181035f83015261268a8189611c0e565b9050818103602083015261269e8188611c0e565b905081810360408301526126b28187611c0e565b90506126c16060830186611b93565b6126ce6080830185611c46565b81810360a08301526126e08184611c0e565b905097965050505050505056fea264697066735822122072ddbd1ac1c3b9f2773ac9b364380174284b8fcea85a4a02c76df725db5a528564736f6c634300081b0033",
  "linkReferences": {},
  "deployedLinkReferences": {}
}